:100000000C942A000C9447000C9447000C94470071
:100010000C9447000C9447000C9447000C94470044
:100020000C9447000C9447000C9447000C94470034
:100030000C9447000C9447000C9447000C94470024
:100040000C9447000C9447000C9447000C94470014
:100050000C94470011241FBECFE5D8E0DEBFCDBF12
:1000600010E0A0E6B0E0E6E8F6E002C005900D92F0
:10007000AC36B107D9F720E0ACE6B0E001C01D9284
:10008000A637B207E1F70E94D0010C9441030C940B
:100090000000413069F4E82FF0E0229181E090E027
:1000A00002C0880F991F6A95E2F7822B808308951A
:1000B000E82FF0E0229181E090E002C0880F991FC4
:1000C0006A95E2F78095822380830895413069F430
:1000D000E82FF0E0208181E090E002C0880F991FB6
:1000E0006A95E2F7822B80830895E82FF0E0208163
:1000F00081E090E002C0880F991F6A95E2F7809531
:10010000822380830895EF92FF920F931F93CF93E2
:10011000DF93EB0110926D0010926C0020E030E054
:10012000082F10E07801C9010496A80102C0559576
:1001300047958A95E2F74170FE01E20FF31F628155
:1001400088810E94660020916C0030916D002F5FC5
:100150003F4F30936D0020936C002430310514F331
:1001600041E06F8189810E94660082E08A95F1F703
:1001700000C040E06F8189810E94660087EC90E0BA
:100180000197F1F700C0000010926D0010926C0012
:1001900080E090E0A701082E02C0559547950A948B
:1001A000E2F74170FE01E80FF91F628188810E9429
:1001B000660080916C0090916D00019690936D00A7
:1001C00080936C00843091052CF341E06F8189812C
:1001D0000E94660092E09A95F1F700C040E06F81BE
:1001E00089810E9466008FEC97E00197F1F700C0CB
:1001F0000000DF91CF911F910F91FF90EF90089534
:10020000EF92FF920F931F93CF93DF93EC0141E0A6
:100210006E8189810E94490041E06F8189810E943D
:1002200049008E010E5F1F4F7E0186E0E80EF11C33
:10023000F80161918F0141E088810E9449000E150B
:100240001F05B1F740E06E8189810E946600BE0102
:1002500083E30E948300BE0182E30E948300BE010B
:1002600088E20E948300BE018EE00E948300BE01EE
:1002700081E00E9483008FE99FE00197F1F700C0C1
:100280000000BE0186E00E948300DF91CF911F91A4
:100290000F91FF90EF900895FF920F931F93CF93CC
:1002A000DF93EC01162F042FF22E40E06E8189813E
:1002B0000E946600E12FF0E0E15AFF4F015080817B
:1002C000BE01800F0E94830041E06E8189810E94FF
:1002D0006600BE018F2D0E948300DF91CF911F9198
:1002E0000F91FF900895EF92FF920F931F93CF937A
:1002F000DF937C01062FE9012881222359F0219602
:1003000011E0140F602FC7010E944C012991412F69
:100310002111F6CFDF91CF911F910F91FF90EF90B8
:100320000895DF92EF92FF920F931F93CF93DF9385
:1003300000D000D000D0CDB7DEB77C01D62E042F80
:10034000C901BE016F5F7F4F26E0FB0111922A9524
:10035000E9F74AE00E940C032981222399F0402FFB
:1003600011E0140F6D2DC7010E944C01812F801BDD
:10037000E1E0F0E0EC0FFD1FE80FF11D2081412FBF
:100380002111EECF26960FB6F894DEBF0FBECDBF7B
:10039000DF91CF911F910F91FF90EF90DF90089523
:1003A000CF93DF9300D01F92CDB7DEB7EEE6F0E03B
:1003B0008BE3818388E3808387E0868396E097835D
:1003C00024E0228325E0238394838583CF010E9448
:1003D00000010E94240241E06AE082E00E943A02A9
:1003E0002FEF80E792E0215080409040E1F700C07D
:1003F0000000AE014D5F5F4FBE016E5F7F4FCE01CB
:1004000001960E94570222E630E041E061E08EE66C
:1004100090E00E947301298130E042E062E08EE6C4
:1004200090E00E9491012A8130E045E062E08EE692
:1004300090E00E9491012B8130E049E062E08EE67D
:1004400090E00E949101FFCF60E084E690E00E947E
:1004500083020E949B0280ED0E94A40287E00E941A
:10046000A4020E94A10287EC90E00197F1F700C07E
:10047000000008951F93CF93DF93C82FD62F142F1A
:100480000E949B0280ED0E94A40280E00E94A402D0
:10049000812F0E94A4028D2F0E94A4028C2F0E9403
:1004A000A4020E94A102DF91CF911F910895EF92C3
:1004B000FF920F931F93CF93DF93EC018B017A018F
:1004C0000E949B0280ED0E94A40280E00E94A40290
:1004D0000E94A1020E949B0281ED0E94A4020E9440
:1004E000AB02F70180830E94AB02F80180830E9477
:1004F000B20288830E94A102DF91CF911F910F91D8
:10050000FF90EF900895CF93C62F9C01A0EDB7E028
:100510000E94DB029B01AC0160E072E18AE790E09F
:100520000E94BC02285020B911B8CC0FC2B984E097
:1005300086BFCF91089584EA86BF06B607FEFDCF39
:10054000089584E986BF089583B984E886BF06B616
:1005500007FEFDCF089584EC86BF06B607FEFDCFEB
:1005600083B1089584E886BF86B78F7B86BF06B6C1
:1005700007FEFDCF83B10895052E97FB1EF400946E
:100580000E94D30257FD07D00E94EA0207FC03D065
:100590004EF40C94D30250954095309521953F4FE1
:1005A0004F4F5F4F089590958095709561957F4F5F
:1005B0008F4F9F4F0895A29FB001B39FC001A39F8B
:1005C000700D811D1124911DB29F700D811D11248C
:1005D000911D0895A1E21A2EAA1BBB1BFD010DC09F
:1005E000AA1FBB1FEE1FFF1FA217B307E407F507E3
:1005F00020F0A21BB30BE40BF50B661F771F881FBF
:10060000991F1A9469F760957095809590959B0154
:10061000AC01BD01CF010895BB274A3031F49923C5
:1006200022F4BDE2909581959F4F0C941803BB274F
:10063000FB015527AA27880F991FAA1FA41710F09E
:10064000A41B83955051B9F7A05DAA3308F0A95DAA
:10065000A193009779F7B111B1931192CB010C944A
:100660003103DC01FC01672F71917723E1F73297A9
:1006700004C07C916D9370836291AE17BF07C8F37D
:060680000895F894FFCF7D
:0C06860080C054696D652069733A200043
:00000001FF
