:100000000C942A000C943F000C943F000C943F0089
:100010000C943F000C943F000C943F000C943F0064
:100020000C943F000C943F000C943F000C943F0054
:100030000C943F000C943F000C943F000C943F0044
:100040000C943F000C943F000C943F000C943F0034
:100050000C943F0011241FBECFE5D8E0DEBFCDBF1A
:1000600010E0A0E6B0E0E0EDF2E002C005900D92F5
:10007000AA36B107D9F70E94ED000C9466010C94E2
:100080000000882319F0813041F00DC087B18064F1
:1000900087B987B1806887B906C087B1806487B99E
:1000A00087B18F7787B986B1876886B9089597B188
:1000B000907F8F70892B87B986B1806486B9369915
:1000C000FECF84B195B10895CF92DF92EF92FF9267
:1000D0006B017C0188E18AB980B5866080BD8BB1F7
:1000E00082608BB980B5806880BD80B590E1499F02
:1000F000A0011124482B40BD30B5822F90E0880F1D
:10010000991F880F991F880F991F832B80BD80B579
:10011000806880BD80B58F7B80BD89B18F7789B9BC
:10012000D701C601880F991FAA1FBB1F880F991FEF
:10013000AA1FBB1F9C01AD01220F331F441F551F77
:1001400060E072E18AE790E00E940F0129B9BB27C5
:10015000A52F942F832F80BDFF90EF90DF90CF903D
:1001600008955D9BFECF8CB908951F93CF93DF93C5
:1001700000D000D000D0CDB7DEB7BE016F5F7F4F9B
:1001800026E0FB0111922A95E9F74AE00E9431012D
:1001900010E003C00E94B1001F5FE1E0F0E0EC0F4F
:1001A000FD1FE10FF11D80818111F4CF26960FB65E
:1001B000F894DEBF0FBECDBFDF91CF911F910895A0
:1001C000CF93DF93EC0103C021960E94B100888198
:1001D0008111FACFDF91CF91089580E00E94410014
:1001E00020E040E060E875E280E090E00E9464007A
:1001F00080E690E00E94E00080E00E9457000E94AC
:10020000B5002FEF84E39CE0215080409040E1F75F
:1002100000C0000086E690E00E94E000EDCFA1E281
:100220001A2EAA1BBB1BFD010DC0AA1FBB1FEE1F70
:10023000FF1FA217B307E407F50720F0A21BB30BBB
:10024000E40BF50B661F771F881F991F1A9469F737
:1002500060957095809590959B01AC01BD01CF0193
:100260000895BB274A3031F4992322F4BDE29095DA
:1002700081959F4F0C943D01BB27FB015527AA2771
:10028000880F991FAA1FA41710F0A41B8395505123
:10029000B9F7A05DAA3308F0A95DA193009779F79B
:1002A000B111B1931192CB010C945601DC01FC0108
:1002B000672F71917723E1F7329704C07C916D939A
:1002C00070836291AE17BF07C8F30895F894FFCF0B
:0A02D0005374617274000D0A0000FF
:00000001FF
