:100000000C942A000C943C000C943C000C943C0092
:100010000C943C000C943C000C943C000C943C0070
:100020000C943C000C943C000C943C000C943C0060
:100030000C943C000C943C000C943C000C943C0050
:100040000C943C000C943C000C943C000C943C0040
:100050000C943C0011241FBECFE5D8E0DEBFCDBF1D
:1000600020E0A0E6B0E001C01D92A536B207E1F79E
:100070000E94CF000C94F0000C940000413069F411
:10008000E82FF0E0229181E090E002C0880F991FF4
:100090006A95E2F7822B80830895E82FF0E02291A1
:1000A00081E090E002C0880F991F6A95E2F7809581
:1000B000822380830895413069F4E82FF0E02081A5
:1000C00081E090E002C0880F991F6A95E2F7822BC9
:1000D00080830895E82FF0E0208181E090E002C065
:1000E000880F991F6A95E2F780958223808308958F
:1000F000EF92FF920F931F93CF93DF938C01EC014C
:1001000021967C0185E0E80EF11C699141E0F8013F
:1001100080810E943E00CE15DF05B9F7DF91CF91B7
:100120001F910F91FF90EF900895AF92BF92CF92E1
:10013000DF92EF92FF920F931F93CF93DF937C0197
:10014000EC012196A12CB12CCC24C394D12C062FE8
:1001500010E06991A6010A2C02C0440F551F0A94B1
:10016000E2F7402351230A2C02C0559547950A9483
:10017000E2F7F70180810E945B00FFEFAF1ABF0A30
:1001800084E0A816B10429F7DF91CF911F910F9158
:10019000FF90EF90DF90CF90BF90AF900895E0E692
:1001A000F0E0118281E0828382E0838383E08483B4
:1001B00088E38083CF010E947800C0E06C2F80E646
:1001C00090E00E9495002FEF84E39CE02150804056
:1001D0009040E1F700C00000CF5FCA3079F7FFCF51
:0401E000F894FFCFC1
:00000001FF
