S00B00004C43442E7372656346
S11300000C942A000C9447000C9447000C9447006D
S11300100C9447000C9447000C9447000C94470040
S11300200C9447000C9447000C9447000C94470030
S11300300C9447000C9447000C9447000C94470020
S11300400C9447000C9447000C9447000C94470010
S11300500C94470011241FBECFE5D8E0DEBFCDBF0E
S113006010E0A0E6B0E0ECEBF4E002C005900D92E5
S1130070AA37B107D9F720E0AAE7B0E001C01D9282
S1130080A438B207E1F70E94E2010C945C020C94DC
S11300900000413069F4E82FF0E0229181E090E023
S11300A002C0880F991F6A95E2F7822B8083089516
S11300B0E82FF0E0229181E090E002C0880F991FC0
S11300C06A95E2F78095822380830895413069F42C
S11300D0E82FF0E0208181E090E002C0880F991FB2
S11300E06A95E2F7822B80830895E82FF0E020815F
S11300F081E090E002C0880F991F6A95E2F780952D
S1130100822380830895EF92FF920F931F93CF93DE
S1130110DF93EB0110927B0010927A0020E030E034
S1130120082F10E07801C9010496A80102C0559572
S113013047958A95E2F74170FE01E20FF31F628151
S113014088810E94660020917A0030917B002F5FA5
S11301503F4F30937B0020937A002430310514F311
S113016041E06F8189810E94660082E08A95F1F7FF
S113017000C040E06F8189810E94660087EC90E0B6
S11301800197F1F700C0000010927B0010927A00F2
S113019080E090E0A701082E02C0559547950A9487
S11301A0E2F74170FE01E80FF91F628188810E9425
S11301B0660080917A0090917B00019690937B0079
S11301C080937A00843091052CF341E06F8189811A
S11301D00E94660092E09A95F1F700C040E06F81BA
S11301E089810E9466008FEC97E00197F1F700C0C7
S11301F00000DF91CF911F910F91FF90EF90089530
S1130200EF92FF920F931F93CF93DF93EC0141E0A2
S11302106E8189810E94490041E06F8189810E9439
S113022049008E010E5F1F4F7E0186E0E80EF11C2F
S1130230F80161918F0141E088810E9449000E1507
S11302401F05B1F740E06E8189810E946600BE01FE
S113025083E30E948300BE0182E30E948300BE0107
S113026088E20E948300BE018EE00E948300BE01EA
S113027081E00E9483008FE99FE00197F1F700C0BD
S11302800000BE0186E00E948300DF91CF911F91A0
S11302900F91FF90EF900895FF920F931F93CF93C8
S11302A0DF93EC01162F042FF22E40E06E8189813A
S11302B00E946600E12FF0E0E15AFF4F0150808177
S11302C0BE01800F0E94830041E06E8189810E94FB
S11302D06600BE018F2D0E948300DF91CF911F9194
S11302E00F91FF900895EF92FF920F931F93CF9376
S11302F0DF937C01062FE9012881222359F02196FE
S113030011E0140F602FC7010E944C012991412F65
S11303102111F6CFDF91CF911F910F91FF90EF90B4
S11303200895DF92EF92FF920F931F93CF93DF9381
S113033000D000D000D0CDB7DEB77C01D62E042F7C
S1130340C901BE016F5F7F4F26E0FB0111922A9520
S1130350E9F74AE00E9427022981222399F0402FDD
S113036011E0140F6D2DC7010E944C01812F801BD9
S1130370E1E0F0E0EC0FFD1FE80FF11D2081412FBB
S11303802111EECF26960FB6F894DEBF0FBECDBF77
S1130390DF91CF911F910F91FF90EF90DF9008951F
S11303A01F93CF93DF93EC01162F40E06E81898178
S11303B00E946600BE01812F0E948300DF91CF91CD
S11303C01F910895ECE7F0E084E0828385E0838365
S11303D096E0948387E08583978386838BE3818388
S11303E088E38083CF010E94000161E08CE790E004
S11303F00E94D00122E630E041E061E08CE790E029
S11304000E94730122E630E041E062E08CE790E074
S11304100E94730128E630E041E061E08CE790E05F
S11304200E94730122E641E062E08CE790E00E94C2
S11304304C012CE03EEF43E062E08CE790E00E9448
S113044091016CE18CE790E00E94D001FFCFBB27C3
S11304504A3031F4992322F4BDE2909581959F4F5F
S11304600C943302BB27FB015527AA27880F991F39
S1130470AA1FA41710F0A41B83955051B9F7A05DCF
S1130480AA3308F0A95DA193009779F7B111B1934C
S11304901192CB010C944C02DC01FC01672F719189
S11304A07723E1F7329704C07C916D937083629156
S10F04B0AE17BF07C8F30895F894FFCFFF
S11304BC80C073616D616B0031323334353637383B
S10D04CC393132333435363700007D
S9030000FC
