:100000000C942A000C943C000C943C000C943C0092
:100010000C943C000C943C000C943C000C943C0070
:100020000C943C000C943C000C943C000C943C0060
:100030000C943C000C943C000C943C000C943C0050
:100040000C943C000C943C000C943C000C943C0040
:100050000C943C0011241FBECFE5D8E0DEBFCDBF1D
:1000600020E0A0E6B0E001C01D92A036B207E1F7A3
:100070000E94AA000C94D6000C9400006F3F31F44B
:10008000E82FF0E031978FEF80830895E82FF0E0BC
:100090003197108208954F3F69F4E82FF0E02291E4
:1000A00081E090E002C0880F991F6A95E2F7822BE9
:1000B00080830895E82FF0E0229181E090E002C073
:1000C000880F991F6A95E2F78095822380830895AF
:1000D000613029F4E82FF0E08FEF80830895E82F56
:1000E000F0E010820895413069F4E82FF0E02081BB
:1000F00081E090E002C0880F991F6A95E2F7822B99
:1001000080830895E82FF0E0208181E090E002C034
:10011000880F991F6A95E2F780958223808308955E
:10012000E82FF0E0329780810895E82FF0E03297D1
:10013000208181E090E0062E02C0880F991F0A946A
:10014000E2F730E08223932302C0959587956A9564
:10015000E2F708956FEF8BE30E943E0060E088E3D2
:100160000E943E004FEF63E085E30E944B0040E0B9
:1001700064E085E30E944B0061E08BE30E9468002D
:1001800060E08BE30E94680041E063E085E30E9449
:10019000730040E063E085E30E94730088E30E94FF
:1001A000900064E085E30E949500FFCFF894FFCFB4
:00000001FF
