S00D000054494D45522E7372656396
S11300000C942A000C943C000C943C000C943C008E
S11300100C943C000C943C000C943C000C943C006C
S11300200C943C000C943C000C943C000C943C005C
S11300300C943C000C943C000C943C000C943C004C
S11300400C943C000C943C000C943C000C943C003C
S11300500C943C0011241FBECFE5D8E0DEBFCDBF19
S113006020E0A0E6B0E001C01D92A036B207E1F79F
S11300700E9454000C9459000C940000E3B7F0E083
S1130080808188608083E9B7F0E080818360808329
S1130090ECB7F0E080E28083E2B7F0E01082E3B7EF
S11300A0F0E080818083089568E081E00E943E0052
S10900B0FFCFF894FFCF1E
S9030000FC
