S017000045787465726E616C5F454550524F4D2E73726563A3
S11300000C942A000C9447000C9447000C9447006D
S11300100C9447000C9447000C9447000C94470040
S11300200C9447000C9447000C9447000C94470030
S11300300C9447000C9447000C9447000C94470020
S11300400C9447000C9447000C9447000C94470010
S11300500C94470011241FBECFE5D8E0DEBFCDBF0E
S113006010E0A0E6B0E0E2E2F6E002C005900D92F6
S1130070A437B107D9F720E0A4E7B0E001C01D928E
S1130080AF37B207E1F70E9408020C940F030C94F7
S1130090000061E090E00E94580208951F93CF93FE
S11300A0DF93C82F162F0E947002D0E0CC0FDD1F03
S11300B08C2F806A0E947902812F0E9479020E940B
S11300C070028C2F816A0E9479020E948002C82FDC
S11300D00E9476028C2FDF91CF911F9108954130B9
S11300E069F4E82FF0E0229181E090E002C0880FEB
S11300F0991F6A95E2F7822B80830895E82FF0E038
S1130100229181E090E002C0880F991F6A95E2F77E
S11301108095822380830895413069F4E82FF0E0CC
S1130120208181E090E002C0880F991F6A95E2F770
S1130130822B80830895E82FF0E0208181E090E015
S113014002C0880F991F6A95E2F780958223808305
S11301500895EF92FF920F931F93CF93DF93EB01D8
S1130160109275001092740020E030E0082F10E027
S11301707801C9010496A80102C0559547958A954E
S1130180E2F74170FE01E20FF31F628188810E9451
S11301908C0020917400309175002F5F3F4F309395
S11301A07500209374002430310514F341E06F810D
S11301B089810E948C0082E08A95F1F700C040E0BA
S11301C06F8189810E948C0087EC90E00197F1F7A0
S11301D000C00000109275001092740080E090E05E
S11301E0A701082E02C0559547950A94E2F741707D
S11301F0FE01E80FF91F628188810E948C008091C2
S1130200740090917500019690937500809374002A
S1130210843091052CF341E06F8189810E948C0028
S113022092E09A95F1F700C040E06F8189810E94C5
S11302308C008FEC97E00197F1F700C00000DF918C
S1130240CF911F910F91FF90EF900895EF92FF923D
S11302500F931F93CF93DF93EC0141E06E8189816B
S11302600E946F0041E06F8189810E946F008E01BE
S11302700E5F1F4F7E0186E0E80EF11CF8016191CC
S11302808F0141E088810E946F000E151F05B1F7B0
S113029040E06E8189810E948C00BE0183E30E944C
S11302A0A900BE0182E30E94A900BE0188E20E9467
S11302B0A900BE018EE00E94A900BE0181E00E9457
S11302C0A9008FE99FE00197F1F700C00000BE018B
S11302D086E00E94A900DF91CF911F910F91FF90BA
S11302E0EF900895FF920F931F93CF93DF93EC0148
S11302F0162F042FF22E40E06E8189810E948C001B
S1130300E12FF0E0E15AFF4F01508081BE01800FE0
S11303100E94A90041E06E8189810E948C00BE0187
S11303208F2D0E94A900DF91CF911F910F91FF9013
S11303300895EF92FF920F931F93CF93DF937C0165
S1130340062FE9012881222359F0219611E0140F88
S1130350602FC7010E9472012991412F2111F6CF0C
S1130360DF91CF911F910F91FF90EF900895DF924D
S1130370EF92FF920F931F93CF93DF9300D000D09F
S113038000D0CDB7DEB77C01D62E042FC901BE0143
S11303906F5F7F4F26E0FB0111922A95E9F74AE04F
S11303A00E94DA022981222399F0402F11E0140FD0
S11303B06D2DC7010E947201812F801BE1E0F0E0E6
S11303C0EC0FFD1FE80FF11D2081412F2111EECF0D
S11303D026960FB6F894DEBF0FBECDBFDF91CF9146
S11303E01F910F91FF90EF90DF9008951F93CF938B
S11303F0DF93EC01162F40E06E8189810E948C000E
S1130400BE01812F0E94A900DF91CF911F91089511
S1130410E7E7F0E08BE3818388E3808387E08683EA
S113042096E0978324E0228325E0238394838583C5
S1130430CF010E94260122E630E041E061E087E737
S113044090E00E9499012FEF89E698E121508040C5
S11304509040E1F700C0000061E087E790E00E946F
S1130460F60184E60E9449008FE19EE40197F1F7CA
S113047000C0000061E070E080E00E944E008093C4
S1130480760061E087E790E00E94F60129E630E01B
S113049041E061E087E790E00E94990120917600B5
S11304A030E041E062E087E790E00E94B701FFCFCF
S11304B0CF93C62F9C01A0EDB7E00E94A9029B0137
S11304C0AC0160E072E18AE790E00E948A02285061
S11304D020B911B8CC0FC2B984E086BFCF9108957A
S11304E084EA86BF06B607FEFDCF089584E986BF79
S11304F0089583B984E886BF06B607FEFDCF089544
S113050084E886BF86B78F7B86BF06B607FEFDCF1D
S113051083B10895052E97FB1EF400940E94A10256
S113052057FD07D00E94B80207FC03D04EF40C9488
S1130530A10250954095309521953F4F4F4F5F4F05
S1130540089590958095709561957F4F8F4F9F4F3B
S11305500895A29FB001B39FC001A39F700D811D98
S11305601124911DB29F700D811D1124911D0895B8
S1130570A1E21A2EAA1BBB1BFD010DC0AA1FBB1FA3
S1130580EE1FFF1FA217B307E407F50720F0A21B15
S1130590B30BE40BF50B661F771F881F991F1A9482
S11305A069F760957095809590959B01AC01BD01AC
S11305B0CF010895BB274A3031F4992322F4BDE2D8
S11305C0909581959F4F0C94E602BB27FB0155271C
S11305D0AA27880F991FAA1FA41710F0A41B83959C
S11305E05051B9F7A05DAA3308F0A95DA193009713
S11305F079F7B111B1931192CB010C94FF02DC0194
S1130600FC01672F71917723E1F7329704C07C9145
S11306106D9370836291AE17BF07C8F30895F89481
S1050620FFCF06
S113062280C05374617274310064617461206973AF
S10706323A20000066
S9030000FC
