:100000000C942A000C9447000C9447000C94470071
:100010000C9447000C9447000C9447000C94470044
:100020000C9447000C9447000C9447000C94470034
:100030000C9447000C9447000C9447000C94470024
:100040000C9447000C9447000C9447000C94470014
:100050000C94470011241FBECFE5D8E0DEBFCDBF12
:1000600010E0A0E6B0E0E0E6F6E002C005900D92F8
:10007000A237B107D9F720E0A2E7B0E001C01D9296
:10008000AD37B207E1F70E9421020C942E030C94C5
:10009000000061E090E00E94770208951F93CF93E3
:1000A000DF93C82F162FD42F0E948F028C2F880F1A
:1000B000806A0E949802812F0E9498028D2F0E94D0
:1000C00098020E949502DF91CF911F9108951F938E
:1000D000CF93DF93C82F162F0E948F02D0E0CC0F52
:1000E000DD1F8C2F806A0E949802812F0E94980247
:1000F0000E948F028C2F816A0E9498020E949F02A8
:10010000C82F0E9495028C2FDF91CF911F910895E7
:10011000413069F4E82FF0E0229181E090E002C0E4
:10012000880F991F6A95E2F7822B80830895E82F44
:10013000F0E0229181E090E002C0880F991F6A955B
:10014000E2F78095822380830895413069F4E82F97
:10015000F0E0208181E090E002C0880F991F6A954D
:10016000E2F7822B80830895E82FF0E0208181E080
:1001700090E002C0880F991F6A95E2F7809582236C
:1001800080830895EF92FF920F931F93CF93DF9395
:10019000EB01109273001092720020E030E0082F03
:1001A00010E07801C9010496A80102C05595479551
:1001B0008A95E2F74170FE01E20FF31F62818881A8
:1001C0000E94A50020917200309173002F5F3F4F75
:1001D00030937300209372002430310514F341E012
:1001E0006F8189810E94A50082E08A95F1F700C0A5
:1001F00040E06F8189810E94A50087EC90E0019723
:10020000F1F700C00000109273001092720080E0BD
:1002100090E0A701082E02C0559547950A94E2F791
:100220004170FE01E80FF91F628188810E94A500DC
:100230008091720090917300019690937300809367
:100240007200843091052CF341E06F8189810E9416
:10025000A50092E09A95F1F700C040E06F81898196
:100260000E94A5008FEC97E00197F1F700C0000015
:10027000DF91CF911F910F91FF90EF900895EF9232
:10028000FF920F931F93CF93DF93EC0141E06E81B8
:1002900089810E94880041E06F8189810E948800E5
:1002A0008E010E5F1F4F7E0186E0E80EF11CF80103
:1002B00061918F0141E088810E9488000E151F0521
:1002C000B1F740E06E8189810E94A500BE0183E301
:1002D0000E94C200BE0182E30E94C200BE0188E209
:1002E0000E94C200BE018EE00E94C200BE0181E0F9
:1002F0000E94C2008FE99FE00197F1F700C0000063
:10030000BE0186E00E94C200DF91CF911F910F9144
:10031000FF90EF900895FF920F931F93CF93DF9379
:10032000EC01162F042FF22E40E06E8189810E948D
:10033000A500E12FF0E0E15AFF4F01508081BE019E
:10034000800F0E94C20041E06E8189810E94A50059
:10035000BE018F2D0E94C200DF91CF911F910F919E
:10036000FF900895EF92FF920F931F93CF93DF9327
:100370007C01062FE9012881222359F0219611E002
:10038000140F602FC7010E948B012991412F211169
:10039000F6CFDF91CF911F910F91FF90EF900895CD
:1003A000DF92EF92FF920F931F93CF93DF9300D0D2
:1003B00000D000D0CDB7DEB77C01D62E042FC90106
:1003C000BE016F5F7F4F26E0FB0111922A95E9F78E
:1003D0004AE00E94F9022981222399F0402F11E07E
:1003E000140F6D2DC7010E948B01812F801BE1E04E
:1003F000F0E0EC0FFD1FE80FF11D2081412F2111CE
:10040000EECF26960FB6F894DEBF0FBECDBFDF91BC
:10041000CF911F910F91FF90EF90DF9008951F9360
:10042000CF93DF93EC01162F40E06E8189810E940B
:10043000A500BE01812F0E94C200DF91CF911F91C4
:100440000895E5E7F0E08BE3818388E3808387E02C
:10045000868396E0978324E0228325E02383948398
:100460008583CF010E943F0122E630E041E061E058
:1004700085E790E00E94B2012FEF89E698E12150D4
:1004800080409040E1F700C0000061E085E790E027
:100490000E940F0284E60E94490049E361E070E097
:1004A00080E00E944E008FE19EE40197F1F700C0CA
:1004B000000061E070E080E00E94670080937400BB
:1004C00061E085E790E00E940F0228E630E041E01D
:1004D00061E085E790E00E94B2012091740030E075
:1004E00041E062E085E790E00E94D001FFCFCF932A
:1004F000C62F9C01A0EDB7E00E94C8029B01AC0191
:1005000060E072E18AE790E00E94A902285020B9D9
:1005100011B8CC0FC2B984E086BFCF91089584EAA8
:1005200086BF06B607FEFDCF089584E986BF08950D
:1005300083B984E886BF06B607FEFDCF089584E838
:1005400086BF86B78F7B86BF06B607FEFDCF83B119
:100550000895052E97FB1EF400940E94C00257FDDB
:1005600007D00E94D70207FC03D04EF40C94C002BF
:1005700050954095309521953F4F4F4F5F4F0895CF
:1005800090958095709561957F4F8F4F9F4F0895FF
:10059000A29FB001B39FC001A39F700D811D1124C4
:1005A000911DB29F700D811D1124911D0895A1E22E
:1005B0001A2EAA1BBB1BFD010DC0AA1FBB1FEE1FDD
:1005C000FF1FA217B307E407F50720F0A21BB30B28
:1005D000E40BF50B661F771F881F991F1A9469F7A4
:1005E00060957095809590959B01AC01BD01CF0100
:1005F0000895BB274A3031F4992322F4BDE2909547
:1006000081959F4F0C940503BB27FB015527AA2713
:10061000880F991FAA1FA41710F0A41B839550518F
:10062000B9F7A05DAA3308F0A95DA193009779F707
:10063000B111B1931192CB010C941E03DC01FC01AA
:10064000672F71917723E1F7329704C07C916D9306
:1006500070836291AE17BF07C8F30895F894FFCF77
:1006600080C0537461727400646174612069733A6C
:02067000200068
:00000001FF
