S017000045787465726E616C5F454550524F4D2E73726563A3
S11300000C942A000C9447000C9447000C9447006D
S11300100C9447000C9447000C9447000C94470040
S11300200C9447000C9447000C9447000C94470030
S11300300C9447000C9447000C9447000C94470020
S11300400C9447000C9447000C9447000C94470010
S11300500C94470011241FBECFE5D8E0DEBFCDBF0E
S113006010E0A0E6B0E0ECE2F5E002C005900D92ED
S1130070A836B107D9F720E0A8E6B0E001C01D9288
S1130080A937B207E1F70E948F010C9494020C94F3
S11300900000413069F4E82FF0E0229181E090E023
S11300A002C0880F991F6A95E2F7822B8083089516
S11300B0E82FF0E0229181E090E002C0880F991FC0
S11300C06A95E2F78095822380830895413069F42C
S11300D0E82FF0E0208181E090E002C0880F991FB2
S11300E06A95E2F7822B80830895E82FF0E020815F
S11300F081E090E002C0880F991F6A95E2F780952D
S1130100822380830895EF92FF920F931F93CF93DE
S1130110DF93EB01109269001092680020E030E058
S1130120082F10E07801C9010496A80102C0559572
S113013047958A95E2F74170FE01E20FF31F628151
S113014088810E94660020916800309169002F5FC9
S11301503F4F30936900209368002430310514F335
S113016041E06F8189810E94660082E08A95F1F7FF
S113017000C040E06F8189810E94660087EC90E0B6
S11301800197F1F700C00000109269001092680016
S113019080E090E0A701082E02C0559547950A9487
S11301A0E2F74170FE01E80FF91F628188810E9425
S11301B066008091680090916900019690936900AF
S11301C080936800843091052CF341E06F8189812C
S11301D00E94660092E09A95F1F700C040E06F81BA
S11301E089810E9466008FEC97E00197F1F700C0C7
S11301F00000DF91CF911F910F91FF90EF90089530
S1130200EF92FF920F931F93CF93DF93EC0141E0A2
S11302106E8189810E94490041E06F8189810E9439
S113022049008E010E5F1F4F7E0186E0E80EF11C2F
S1130230F80161918F0141E088810E9449000E1507
S11302401F05B1F740E06E8189810E946600BE01FE
S113025083E30E948300BE0182E30E948300BE0107
S113026088E20E948300BE018EE00E948300BE01EA
S113027081E00E9483008FE99FE00197F1F700C0BD
S11302800000BE0186E00E948300DF91CF911F91A0
S11302900F91FF90EF900895EF92FF920F931F93A9
S11302A0CF93DF938C01F62EE42EE90140E0FC01AC
S11302B0668181810E946600EF2DF0E0E15AFF4FD4
S11302C0EA948081B8018E0D0E94830041E0F80118
S11302D0668181810E9466008881882339F0219695
S11302E0B8010E94830089918111FACFDF91CF91E7
S11302F01F910F91FF90EF9008951F93CF93DF9379
S1130300EC01162F40E06E8189810E946600BE01D7
S1130310812F0E948300DF91CF911F9108954AE0BD
S113032062E770E080E190E00E945F02EAE6F0E0BC
S113033088E38183808382E0868383E0878384E00B
S1130340828385E0838386E0848387E08583CF018D
S11303500E94000161E084E690E00E9406026CE0E5
S11303608AE690E00E947D0122E630E041E061E00F
S11303708AE690E00E944C012FEF80E792E0215042
S113038080409040E1F700C0000022E730E041E007
S113039062E08AE690E00E944C010E941E0280EA1C
S11303A00E9427022FEF84E39CE02150804090407C
S11303B0E1F700C000008FEF0E9427022FEF84E3D3
S11303C09CE0215080409040E1F700C000008EEF97
S11303D00E9427022FEF84E39CE02150804090404C
S11303E0E1F700C000000E9424022FEF89E698E1A3
S11303F0215080409040E1F700C000000E941E029E
S113040081EA0E9427020E942402FFCFCF93C62FC5
S11304109C01A0EDB7E00E9450029B01AC0160E09A
S113042072E18AE790E00E942E02285020B911B8A8
S1130430CC0FC2B984E086BFCF91089584EA86BF09
S113044006B607FEFDCF089584E986BF089583B9F3
S113045084E886BF06B607FEFDCF0895A1E21A2EF2
S1130460AA1BBB1BFD010DC0AA1FBB1FEE1FFF1F54
S1130470A217B307E407F50720F0A21BB30BE40BA4
S1130480F50B661F771F881F991F1A9469F76095EB
S11304907095809590959B01AC01BD01CF010895A5
S11304A0A29FB001B39FC001A39F700D811D1124B1
S11304B0911DB29F700D811D1124911D0895BB27BC
S11304C04A3031F4992322F4BDE2909581959F4FEF
S11304D00C946B02BB27FB015527AA27880F991F91
S11304E0AA1FA41710F0A41B83955051B9F7A05D5F
S11304F0AA3308F0A95DA193009779F7B111B193DC
S11305001192CB010C948402DC01FC01672F7191E0
S11305107723E1F7329704C07C916D9370836291E5
S10F0520AE17BF07C8F30895F894FFCF8E
S10B052C80C053746172740075
S9030000FC
