S017000045787465726E616C5F454550524F4D2E73726563A3
S11300000C942A000C9447000C9447000C9447006D
S11300100C9447000C9447000C9447000C94470040
S11300200C9447000C9447000C9447000C94470030
S11300300C9447000C9447000C9447000C94470020
S11300400C9447000C9447000C9447000C94470010
S11300500C94470011241FBECFE5D8E0DEBFCDBF0E
S113006010E0A0E6B0E0E8E2F6E002C005900D92F0
S1130070AC36B107D9F720E0ACE6B0E001C01D9280
S1130080A737B207E1F70E9435020C9412030C94CF
S1130090000061E090E00E947A0208951F93CF93DC
S11300A0DF93C82F162FD42F0E9492028C2F880F13
S11300B0806A0E949B02812F0E949B028D2F0E94C6
S11300C09B020E949802DF91CF911F9108951F9384
S11300D0CF93DF93C82F162F0E949202D0E0CC0F4B
S11300E0DD1F8C2F806A0E949B02812F0E949B023D
S11300F00E9492028C2F816A0E949B020E94A2029B
S1130100C82F0E9498028C2FDF91CF911F910895E0
S1130110613031F4E82FF0E031978FEF8083089558
S1130120611105C0E82FF0E0319710820895E82F9F
S1130130F0E0319760830895413069F4E82FF0E0EE
S1130140229181E090E002C0880F991F6A95E2F73E
S1130150822B80830895E82FF0E0229181E090E0E3
S113016002C0880F991F6A95E2F7809582238083E5
S11301700895413069F4E82FF0E0208181E090E0B7
S113018002C0880F991F6A95E2F7822B8083089535
S1130190E82FF0E0208181E090E002C0880F991FF1
S11301A06A95E2F78095822380830895EF92FF9207
S11301B00F931F93CF93DF93EB0110926D00109276
S11301C06C0020E030E0082F10E07801C9010496AB
S11301D0A80102C0559547958A95E2F74170FE0142
S11301E0E20FF31F628188810E94B90020916C00A4
S11301F030916D002F5F3F4F30936D0020936C0062
S11302002430310514F341E06F8189810E94B900E3
S113021082E08A95F1F700C040E06F8189810E94F5
S1130220B90087EC90E00197F1F700C0000010924C
S11302306D0010926C0080E090E0A701082E02C0CF
S1130240559547950A94E2F74170FE01E80FF91FAE
S1130250628188810E94B90080916C0090916D0048
S1130260019690936D0080936C00843091052CF37B
S113027041E06F8189810E94B90092E09A95F1F77B
S113028000C040E06F8189810E94B9008FEC97E043
S11302900197F1F700C00000DF91CF911F910F91FA
S11302A0FF90EF900895EF92FF920F931F93CF93D7
S11302B0DF93EC0141E06E8189810E949C0041E062
S11302C06F8189810E949C008E010E5F1F4F7E0109
S11302D086E0E80EF11CF80161918F0141E088810C
S11302E00E949C000E151F05B1F740E06E818981C4
S11302F00E94B900BE0183E30E94D600BE0182E3DE
S11303000E94D600BE0188E20E94D600BE018EE0A3
S11303100E94D600BE0181E00E94D6008FE99FE0D2
S11303200197F1F700C00000BE0186E00E94D600EC
S1130330DF91CF911F910F91FF90EF900895FF925D
S11303400F931F93CF93DF93EC01162F042FF22EFC
S113035040E06E8189810E94B900E12FF0E0E15A0A
S1130360FF4F01508081BE01800F0E94D60041E002
S11303706E8189810E94B900BE018F2D0E94D60032
S1130380DF91CF911F910F91FF900895EF92FF920B
S11303900F931F93CF93DF937C01062FE9012881EC
S11303A0222359F0219611E0140F602FC7010E94F7
S11303B09F012991412F2111F6CFDF91CF911F91F8
S11303C00F91FF90EF900895DF92EF92FF920F93B9
S11303D01F93CF93DF9300D000D000D0CDB7DEB70A
S11303E07C01D62E042FC901BE016F5F7F4F26E02A
S11303F0FB0111922A95E9F74AE00E94DD02298166
S1130400222399F0402F11E0140F6D2DC7010E9493
S11304109F01812F801BE1E0F0E0EC0FFD1FE80F4E
S1130420F11D2081412F2111EECF26960FB6F894AD
S1130430DEBF0FBECDBFDF91CF911F910F91FF9013
S1130440EF90DF9008951F93CF93DF93EC01162F65
S113045040E06E8189810E94B900BE01812F0E9413
S1130460D600DF91CF911F91089561E08BE30E9444
S11304708800EFE6F0E088E38183808382E086836E
S113048083E0878384E0828385E0838386E08483BA
S113049087E08583CF010E94530184E60E944900CE
S11304A049E361E070E080E00E944E008FE19EE449
S11304B00197F1F700C0000061E070E080E00E9465
S11304C0670080936E0061E08FE690E00E94230253
S11304D022E630E041E061E08FE690E00E94C60150
S11304E020916E0030E041E062E08FE690E00E94EF
S11304F0E401FFCFCF93C62F9C01A0EDB7E00E948B
S1130500CE029B01AC0160E072E18AE790E00E94B8
S1130510AC02285020B911B8CC0FC2B984E086BF10
S1130520CF91089584EA86BF06B607FEFDCF0895ED
S113053084E986BF089583B984E886BF06B607FEBA
S1130540FDCF089584E886BF86B78F7B86BF06B645
S113055007FEFDCF83B10895A1E21A2EAA1BBB1B8F
S1130560FD010DC0AA1FBB1FEE1FFF1FA217B3077B
S1130570E407F50720F0A21BB30BE40BF50B661F91
S1130580771F881F991F1A9469F760957095809555
S113059090959B01AC01BD01CF010895A29FB001CC
S11305A0B39FC001A39F700D811D1124911DB29FA3
S11305B0700D811D1124911D0895BB274A3031F41B
S11305C0992322F4BDE2909581959F4F0C94E90202
S11305D0BB27FB015527AA27880F991FAA1FA41719
S11305E010F0A41B83955051B9F7A05DAA3308F00D
S11305F0A95DA193009779F7B111B1931192CB0141
S11306000C940203DC01FC01672F71917723E1F75D
S1130610329704C07C916D9370836291AE17BF07CB
S10B0620C8F30895F894FFCF1C
S10F062880C0646174612069733A200092
S9030000FC
