:100000000C942A000C9447000C9447000C94470071
:100010000C9447000C9447000C9447000C94470044
:100020000C9447000C9447000C9447000C94470034
:100030000C9447000C9447000C9447000C94470024
:100040000C9447000C9447000C9447000C94470014
:100050000C94470011241FBECFE5D8E0DEBFCDBF12
:1000600010E0A0E6B0E0EEE6F2E002C005900D92EE
:10007000A836B107D9F720E0A8E6B0E001C01D928C
:10008000A936B207E1F70E94C7000C9435010C9421
:10009000000038E13AB930B5366030BD599A30B514
:1000A000306830BD30B5E0E14E9FA0011124432BF4
:1000B00040BD30B5220F220F220F232B20BD20B5CB
:1000C000206820BD20B52F7B20BD4F98DC01CB01DF
:1000D000880F991FAA1FBB1F880F991FAA1FBB1F3C
:1000E0009C01AD01220F331F441F551F60E072E1D8
:1000F0008AE790E00E94DE0029B9BB27A52F942F44
:10010000832F80BD08955D9BFECF8CB908951F930A
:10011000CF93DF9300D000D000D0CDB7DEB7BE01C3
:100120006F5F7F4F26E0FB0111922A95E9F74AE0C5
:100130000E9400018981882369F010E00E948300F9
:100140001F5FE1E0F0E0EC0FFD1FE10FF11D80818A
:100150008111F4CF26960FB6F894DEBF0FBECDBF47
:10016000DF91CF911F9108955F9BFECF8CB10895D1
:10017000CF93DF93EC018881882331F021960E9490
:10018000830089918111FBCFDF91CF91089520E009
:1001900040E060E072EC81E090E00E94490080E67F
:1001A00090E00E94B80084E89FEF0E9487000E94C0
:1001B000B400809368000E948300F9CFA1E21A2E58
:1001C000AA1BBB1BFD010DC0AA1FBB1FEE1FFF1FFB
:1001D000A217B307E407F50720F0A21BB30BE40B4B
:1001E000F50B661F771F881F991F1A9469F7609592
:1001F0007095809590959B01AC01BD01CF0108954C
:10020000BB274A3031F4992322F4BDE290958195C1
:100210009F4F0C940C01BB27FB015527AA27880F81
:10022000991FAA1FA41710F0A41B83955051B9F76A
:10023000A05DAA3308F0A95DA193009779F7B111E9
:10024000B1931192CB010C942501DC01FC01672FC5
:1002500071917723E1F7329704C07C916D9370839D
:0E0260006291AE17BF07C8F30895F894FFCF60
:08026E0053746172740D0A0063
:00000001FF
