:100000000C942A000C9447000C9447000C94470071
:100010000C9447000C9447000C9447000C94470044
:100020000C9447000C9447000C9447000C94470034
:100030000C9447000C9447000C9447000C94470024
:100040000C9447000C9447000C9447000C94470014
:100050000C94470011241FBECFE5D8E0DEBFCDBF12
:1000600010E0A0E6B0E0E2EAF1E002C005900D92F7
:10007000A636B107D9F720E0A6E6B0E001C01D9290
:10008000A736B207E1F70E949A000C94CF000C94B7
:10009000000038E13AB930B5366030BD599A30B514
:1000A000306830BD30B5E0E14E9FA0011124432BF4
:1000B00040BD30B5220F220F220F232B20BD20B5CB
:1000C000206820BD20B52F7B20BD4F98DC01CB01DF
:1000D000880F991FAA1FBB1F880F991FAA1FBB1F3C
:1000E0009C01AD01220F331F441F551F60E072E1D8
:1000F0008AE790E00E94AD0029B9BB27A52F942F75
:10010000832F80BD08955D9BFECF8CB908955F9BC2
:10011000FECF8CB10895CF93DF93EC0188818823C3
:1001200031F021960E94830089918111FBCFDF91EC
:10013000CF91089520E040E060E072EC81E090E033
:100140000E94490080E690E00E948B000E94870098
:10015000809366000E948300F9CFA1E21A2EAA1BA9
:10016000BB1BFD010DC0AA1FBB1FEE1FFF1FA21767
:10017000B307E407F50720F0A21BB30BE40BF50B64
:10018000661F771F881F991F1A9469F760957095ED
:10019000809590959B01AC01BD01CF010895F89425
:0201A000FFCF8F
:0601A20053746172740049
:00000001FF
